:020000040800F2
:1000000010BC01209D010008B51C0008B9150008AE
:10001000B11C000829070008CB2F000800000000D1
:10002000000000000000000000000000692500083A
:100030002D07000800000000511D00088D26000853
:10004000B7010008B7010008B70100082124000823
:10005000B7010008B7010008B7010008B7010008A0
:10006000B7010008B7010008B7010008B701000890
:10007000B7010008B7010008B7010008B701000880
:10008000B7010008B7010008B7010008B701000870
:10009000B7010008B7010008B7010008B701000860
:1000A000B7010008B7010008B7010008B701000850
:1000B000B70100082D2B0008BD2B0008B701000870
:1000C000B7010008B7010008B7010008B701000830
:1000D000B7010008C52C0008B7010008B7010008E7
:1000E000B7010008911F0008B7010008B701000818
:1000F000B7010008B7010008B7010008B701000800
:10010000B7010008B7010008B7010008B7010008EF
:10011000B7010008B7010008B7010008B7010008DF
:10012000B7010008B7010008B7010008B7010008CF
:10013000B701000821090008B7010008B70100084D
:10014000B7010008B7010008B7010008B7010008AF
:10015000B7010008B7010008B7010008B70100089F
:10016000B7010008B7010008B7010008B70100088F
:10017000B7010008B7010008B7010008B70100087F
:10018000B7010008B7010008DFF80CD000F0DAF87A
:1001900000480047E975000810BC01200648804768
:1001A00006480047FEE7FEE7FEE7FEE7FEE7FEE75C
:1001B000FEE7FEE7FEE7FEE7CD260008890100081E
:1001C00040EA01039B0703D009E008C9121F08C0D9
:1001D000042AFAD203E011F8013B00F8013B521E59
:1001E000F9D27047D2B201E000F8012B491EFBD2D0
:1001F00070470022F6E710B513460A460446194632
:10020000FFF7F0FF204610BD30B505462A460B46E5
:1002100012F8010B13F8014B08B1A042F8D01CB141
:10022000002802D06D1CF1E7284630BDCAB2401E3E
:1002300010F8011F8A4202D00029F9D1002070472E
:10024000421C10F8011B0029FBD1801A704710B521
:10025000002200E0521C835C8C5CA34201D1002B85
:10026000F8D1D8B2E1B2401A10BD30B50446002032
:10027000034600E05B1C934203D2E05CCD5C401B74
:10028000F8D030BD30B505460020034600E05B1CC9
:10029000934205D2EC5CC85C201A01D1002CF6D147
:1002A00030BD2DE9F05F0546002092469B4688460A
:1002B0000646814640241BE02846414647462246E2
:1002C00000F02FF853465A46C01A914110D31146F8
:1002D0001846224600F016F82D1A67EB01084F4623
:1002E00022460120002100F00DF817EB00094E41D5
:1002F000201EA4F10104DFDC484631462A4643466D
:10030000BDE8F09F202A04DB203A00FA02F1002029
:1003100070479140C2F1200320FA03F31943904043
:100320007047202A04DB203A21FA02F000217047AE
:1003300021FA02F3D040C2F120029140084319464D
:1003400070470000064C074D06E0E06840F00103EE
:1003500094E8070098471034AC42F6D3FFF718FF33
:10036000783402089834020870B58C1810F8015BD4
:1003700015F0070301D110F8013B2A1106D110F83E
:10038000012B03E010F8016B01F8016B5B1EF9D142
:100390002B0705D40023521E0DD401F8013BFAE7C8
:1003A00010F8013BCB1A921C03E013F8015B01F833
:1003B000015B521EF9D5A142D8D3002070BD21B1F6
:1003C000826842F00102826003E0826822F001024A
:1003D000826070470021084A1168084A1140D0E93C
:1003E00000231A4383681A43C3681A431143044A1B
:1003F000C2F804137047000004230140E030FCFF02
:10040000002001400146C86C80B2704702460020BF
:1004100013680B400BB1012000E000207047000082
:100420002DE9F05F82460C469346BAF1000F51D198
:1004300000BF00BF00BF00BF00BF27480068012801
:1004400004D100F017F90020234908600A21012097
:1004500001F088F8064640F6E4407043060B4FF47E
:100460007A70B6FBF0F0C5B205EB4500C0EBC510E5
:10047000A6EBC0006421B0FBF1F0C7B24FF47A7074
:1004800015FB00F007EBC70101EB071100EB810042
:10049000301A0A21B0FBF1F8E82015FB00F007EB59
:1004A000C70101EB071100EB810008EB880100EBAD
:1004B0004100A6EB000905F13000207007F1300083
:1004C000607008F13000A07009F13000E070042085
:1004D000BDE8F09F0020FBE7BC00002030B50246DD
:1004E000002000235068104C20400D790C6844EA2D
:1004F00005242043506090680C4C2040D1E90354FF
:100500002C438D682C434D7944EA45042043906088
:10051000D06A20F470000C7D641EE4B2234340EAEC
:100520000350D06230BD0000FFFEFFFCFDF7FFC0AE
:10053000F0B504460D4600200021092D11DDE068CC
:10054000A5F10A0606EB4607072606FA07F18843D7
:10055000A5F10A0606EB460603FA06F10843E06039
:100560000CE0206905EB4507072606FA07F18843EA
:1005700005EB450603FA06F108432061072A0FDA66
:10058000606B561E06EB86071F2606FA07F18843A6
:10059000561E06EB860605FA06F10843606322E064
:1005A0000D2A0FDA206BD61F06EB86071F2606FAE8
:1005B00007F18843D61F06EB860605FA06F10843C5
:1005C000206310E0E06AA2F10D0606EB86071F2605
:1005D00006FA07F18843A2F10D0606EB860605FA36
:1005E00006F10843E062F0BD816841F0804181601E
:1005F0007047000038B10849096841F40001074A12
:10060000C2F8041306E00449096821F40001034A12
:10061000C2F8041370470000042301400020014089
:1006200000B58BB00121080201F0D4FB0120FFF7D7
:10063000E1FF002007900A9009904FF48030089065
:1006400007A8FFF7C7FE002001908DF808008DF87D
:1006500009000390059001208DF8180001A90448B5
:10066000FFF73CFF01210248FFF7A9FE0BB000BDD8
:100670000020014000B58DB00121084601F06AFB61
:100680000121080201F0A6FB03208DF83000202094
:100690000B9000208DF833000BA9114800F0F2FEFA
:1006A000002007900A9009904FF48030089007A826
:1006B000FFF790FE002001908DF808008DF80900EA
:1006C0000390059001208DF8180001A90548FFF757
:1006D00005FF01210348FFF772FE0DB000BD0000C9
:1006E00000000240002001401CB50121202001F043
:1006F00031FB01208DF804000002009003208DF8EA
:10070000050000208DF8060001208DF807006946DD
:10071000044800F0B7FE4FF48071024800F01DFF5E
:100720001CBD00000014024000BFFEE7704708B582
:100730003D208DF8000000208DF801008DF80200AA
:1007400001208DF80300684601F0B6FA08BD0000EC
:1007500001494861704700000090024029B1064AF3
:10076000D2690243044BDA6104E0034AD26982434E
:10077000014BDA61704700000090024030B1074938
:10078000896941F00201054A916105E003498969DF
:1007900021F00201014A916170470000009002407F
:1007A00070B50C4613460021124D286000BF18E0BA
:1007B00000EB41124FF00045156044F2F4555560CE
:1007C000C1EBC11505EB450504EB850595605D1E84
:1007D0008D4204D900EB41152035D56000E0D06092
:1007E000491C9942E4D3044DE860044D044E356041
:1007F00070BD000014000020009002407001002035
:100800001800002030B10749896941F40051054AB8
:10081000916105E00349896921F40051014A916120
:10082000704700000090024030B50C46134600218E
:100830000F4D286000BF15E000EB41124FF480150A
:100840001560C1EBC11505EB450504EB8505956009
:100850005D1E8D4204D900EB41152035D56000E0C6
:10086000D060491C9942E7D3024D286130BD000099
:10087000100000200090024002680A4302607047A6
:1008800010B50121480601F075FA00214FF0007003
:1008900001F070FA10BD01B581B000200090019800
:1008A000009002E00098401E009000980028F9D1C6
:1008B0000CBD00000348806940F480100149886144
:1008C000704700000090024001480068806870474F
:1008D0001000002001460868C0F30D40704700B5C5
:1008E00002460023106800F0004058B9106800F478
:1008F000004038B9106800F4807018B11046FFF756
:10090000E9FF0346184600BD00200449096801F0CC
:10091000010109B1012000E0002070470090024071
:1009200010B501E006F004FD06480068FFF7D7FFA8
:100930000028F7D14020FFF70BFF4FF48030FFF77E
:1009400007FF10BD140000202DE9F04186B00446D9
:100950000F464FF00008002500200590954E0090AE
:100960009548056925F01C0501A801F043FA029E8F
:100970009248864205D39248864202D245F0080545
:100980001AE08F48864205D38A48864202D245F053
:100990000C0511E08748864203D38A48864200D27C
:1009A0000AE08848864205D38748864202D245F04D
:1009B000040501E045F010057F4805614FF4004251
:1009C0000021384600F010FB18B9002006B0BDE841
:1009D000F0817E48FFF75FFF206800284ED000BFFF
:1009E0000098401C00900121384600F0D1F900F039
:1009F000040018B9764900988842F1D374490098E8
:100A0000884201D10020E1E7002000904FF480529D
:100A10000021384600F0E8FA08B90020D6E700BF08
:100A20000098401C00900121384600F0B1F900F018
:100A3000200018B9664900988842F1D364490098AB
:100A4000884201D10020C1E7002000901F213846D4
:100A500000F09EF9804608F0100018B14FF40060D5
:100A6000206201E00020206208F0040010B10020A4
:100A7000606116E04FF48040606112E0206AC0F3CC
:100A8000CF006169C1F34F0140EA010200213846FD
:100A900000F0AAFA08B9002098E76FF07F40FFF74E
:100AA000FAFE454805684B480540D4E90101084372
:100AB000E16808432169084361690843A169084363
:100AC000E1690843216A0843616A0843A16A08434F
:100AD000E16A0843216B0843616B084305433648CC
:100AE0000560D4E90E010843216C0843616C08439A
:100AF000A16C0843E16C0843216D0843616D084314
:100B00002D494860A06D8860E06DC8600846856921
:100B10004FF641700540B4F86010606E40EA014045
:100B2000A16E0843E16E0843216F0843616F0843DB
:100B3000054321488561D4E91E0108431E49C86167
:100B40002548856925480540D4E920010843D4F8A3
:100B500088100843D4F88C100843D4F89010084348
:100B6000D4F894100843D4F898100843D4F89C1093
:100B70000843D4F8A0100843054317488561D4E919
:100B800029010843D4F8AC100843D4F8B010084346
:100B9000D4F8B41040EA8100D4F8B810084340F407
:100BA00000000D4908600846006840F080000860B9
:100BB00001200BE70087930300800240002D3101E4
:100BC000C00E160200E1F50580D1F008FFFF0F000E
:100BD000FFFF04000F8120FF00900240233FDEF85A
:100BE00010B50B794C7943EA0422094B03441A648B
:100BF000CB781B068C7843EA04434C7843EA042301
:100C00000C7843EA0402024B03445A6410BD00000E
:100C10000080024010B5B0B001214FF0606001F0DB
:100C200099F8FFF72DFE00F037F900BFFFF76CFED3
:100C30000128FBD001A800F049F901200190002013
:100C400008904FF400700B9000200C900F901290C1
:100C500014901590169021904FF000702290001182
:100C6000249000202690279004202990C0052A90E7
:100C700040122B9080012C9040122D9040002F901C
:100C8000002101A8FFF760FEC4B2012C03D10121AD
:100C90000248FFF763FD204630B010BD4000010060
:100CA00030B10749096841F00401054A116005E0C7
:100CB0000349096821F00401014A116070470000EE
:100CC0000080024030B10749096841F00801054A37
:100CD000116005E00349096821F00801014A11602B
:100CE000704700000080024010B50A4801680020EB
:100CF00007F064FA08480168002007F05FFA074827
:100D00000168002007F05AFA05480168002007F042
:100D100055FA10BD34000020380000203C000020AF
:100D20004000002010B5A021002007F059FA144916
:100D30000860A021002007F053FA1249086041F62C
:100D4000C451002007F04CFA0F49086041F6C45125
:100D5000002007F045FA0D4908600948006840B1D5
:100D60000848006828B10848006810B108460068C3
:100D700018B9FFF7B9FF012010BD0020FCE7000003
:100D800034000020380000203C00002040000020FB
:100D900018B502460B460021002000901548016955
:100DA00001F01C014FF4784000EAC22001434FF4E7
:100DB000F86000EA8310014321F0020141F00101D3
:100DC0000C48016100BF0098401C0090094801696F
:100DD00001F0010018B1084C0098A042F3D3064C72
:100DE0000098A04201D1002018BD0248406980B29D
:100DF000FAE7000000800240FFFF04001EB500215A
:100E00000022009201920292214A1268126802F0B6
:100E1000004282B1002200921E4A526902F0800212
:100E200022B180221B4B5A6100229A609DE81C006F
:100E300080E81C001EBD164A1268126802F40042C7
:100E4000B2B9134A1268126802F4807282B1104A71
:100E50001268126802F4007252B10D4A12681268E8
:100E6000C2F30D42111F0A4A12689268019200E013
:100E700000210091064A12680292054A1268D2685F
:100E8000034B1A609DE81C0080E81C0000BFD1E7FE
:100E900014000020009002400348006840F0010068
:100EA00001490860704700000090024000B5012031
:100EB000FFF708FFFFF7FEFC0120FFF7F1FE01201E
:100EC000FFF7A0FC0120FFF759FC00BD01210160E4
:100ED000002141608160C16001614FF48041416146
:100EE00000218161C1614FF4006101620021416212
:100EF0008162C162016341638163C1634021016416
:100F00002021416400218164C164016541658165DE
:100F1000C16501668021416600218166C166016765
:100F200041678167C1674FF08061C0F88010491048
:100F3000C0F884100021C0F888104FF40011C0F8E8
:100F40008C100021C0F89010C0F89410C0F89810D0
:100F5000C0F89C10C0F8A0104FF00071C0F8A410A9
:100F60004912C0F8A8108901C0F8AC104912C0F8A5
:100F7000B0100021C0F8B410C0F8B81070470000DD
:100F8000014617480068006800F0004008B10020E2
:100F90007047C1F30C00124A126850601048006894
:100FA000006840F040500E4A126810600C4800681B
:100FB000006840F000400A4A126810600948406921
:100FC00000F0040020B10420064A50610020506067
:100FD00003480068C068024A10600120D8E700009A
:100FE000100000200090024038B503460C46002156
:100FF000002000901448016901F01C014FF4784072
:1010000000EAC32001434FF4F86000EA8410014372
:1010100041F0020141F001010B484261016100BF52
:101020000098401C00900848016901F0010018B1C7
:10103000064D0098A842F3D3044D0098A84201D170
:10104000002038BD0120FCE700800240FFFF0400C3
:101050000149086070470000143C014051B1820012
:10106000A2F1C042126842F001038200A2F1C04224
:10107000136009E08200A2F1C0421268034B1A40DB
:101080008300A3F1C0431A6070470000FEFF0F0009
:1010900030B50021002200230468A400A4F1C0445C
:1010A0002168444C2140D0E901452C43C5682C43BC
:1010B00005692C4345692C4385692C43C5692C433C
:1010C000056A2C43456A2C43856A2C43C56A2C4328
:1010D000056B2C4321430468A400A4F1C0442160A3
:1010E0008468082C0BD10468A400A4F1C0442468CF
:1010F00044F040050468A400A4F1C04425600468DD
:10110000641CA400A4F1C044226802F04042446B75
:101110002468456B6D6844EA0514456BAD6844EA84
:101120000524456BAD8944EA0544456B2D8A44EAA4
:101130000554456B2D7D44EA0564456BAD692C4330
:1011400022430468641CA400A4F1C0442260C46A61
:10115000B4F5804F24D10468A400A4F1C044D4F8AD
:10116000043103F04043846B2468856B6D6844EA66
:101170000514856BAD6844EA0524856B2D8A44EA25
:101180000554856B2D7D44EA0564856BAD692C4360
:1011900023430468A400A4F1C044C4F8043107E068
:1011A0006FF070450468A400A4F1C044C4F8045171
:1011B00030BD00008000F7FF00B599B001217A2012
:1011C00000F0C8FD0121084600F0E4FD0C220021DA
:1011D000A74800F09FF90C220121A54800F09AF9D8
:1011E0000C220421A24800F095F90C220521A04808
:1011F00000F090F90C2208219D4800F08BF90C2298
:1012000009219B4800F086F90C220A21984800F039
:1012100081F90C220B21964800F07CF90C22114632
:10122000934800F077F90C220D21914800F072F9F3
:101230000C220E218E4800F06DF90C220F218C48F3
:1012400000F068F90C2200218A4800F063F90C22B2
:101250000121884800F05EF90C220721854800F042
:1012600059F90C220821834800F054F90C22092175
:10127000804800F04FF90C220A217E4800F04AF91C
:101280000C220B217B4800F045F90C2211467948CD
:1012900000F040F90C220D21764800F03BF90C22B9
:1012A0000E21744800F036F90C220F21714800F02D
:1012B00031F90C220021704800F02CF90C22012198
:1012C0006D4800F027F90C2202216B4800F022F94A
:1012D0000C220321684800F01DF90C220421664805
:1012E00000F018F90C220521634800F013F90C22D4
:1012F0001146614800F00EF90C220D215E4800F005
:1013000009F90C220E215C4800F004F90C220F218F
:10131000594800F0FFF80C220021584800F0FAF874
:101320000C220121554800F0F5F80C220221534807
:1013300000F0F0F80C220321504800F0EBF80C22EA
:1013400004214E4800F0E6F80C2205214B4800F03D
:10135000E1F80C220A21494800F0DCF84FF4004083
:10136000179001208DF8600000208DF862000220A7
:101370008DF8610001208DF8630017A9404800F046
:1013800081F84FF63370179002208DF8600000202E
:101390008DF8620003208DF8610001208DF8630054
:1013A00017A9334800F06EF84FF6837017900220AB
:1013B0008DF8600000208DF8620003208DF8610038
:1013C00001208DF8630017A92A4800F05BF84FF25E
:1013D0003F00179002208DF8600000208DF8620019
:1013E00003208DF8610001208DF8630017A92248C1
:1013F00000F048F840F23F40179002208DF860005E
:1014000000208DF8620003208DF8610001208DF826
:10141000630017A9194800F035F8002001900290E8
:101420001820039000200490059006900790042057
:101430000890002009900A9010200B9000200C903A
:101440000E900D900F9010904FF48050119000204E
:1014500012901390149001A81590169008A8FFF709
:1014600017FE01210420FFF7F9FD19B000BD0000AF
:10147000000C02400010024000140240001802401C
:1014800000040240F0B50A4600210023002400BFFA
:101490003DE0012505FA01F3156805EA03049C42C5
:1014A00034D105684F000326BE40B5430560157969
:1014B0004E00B5400668354305601579012D02D010
:1014C0001579022D16D185684F000326BE40B5431D
:1014D000856055794E00B54086683543856045681E
:1014E00001268E40B5434560456896798E40B6B278
:1014F00035434560C5684F000326BE40B543C5600F
:10150000D5794E00B540C6683543C560491C1029E1
:10151000BFD3F0BDF0B5002300244D07ED0E02FA55
:1015200005F3CE1000F1200555F826504E07F70EB2
:101530000F26BE40B543CF1000F1200646F82750D5
:10154000CE1000F1200555F8265045EA0304CE10D0
:1015500000F1200545F82640F0BD41837047018326
:10156000704700002DE9F04105460C460026072390
:10157000012229460F48FEF7DBFF002712E00D4845
:10158000FFF732F800BF02210A48FEF73FFF0028AC
:10159000F9D00848FEF736FF0644052001F0C0FEEA
:1015A000781CC7B2A742EADBB6FBF4F080B2BDE814
:1015B000F08100000020014000BFFEE71CB50121C2
:1015C000112000F0C7FB00208DF804001C200090C3
:1015D00001208DF8070069460748FFF753FF0020F8
:1015E0008DF804000120009002208DF80700694664
:1015F0000248FFF747FF1CBD0010024000000240F8
:1016000010B50446012C01D1224908702148007808
:1016100001282AD12048006801280AD01F48006804
:1016200038B11E48001F006818B11C48083800680F
:10163000D8B90A2001F074FE002016490870164837
:101640000068012800D110BD1448006808B90220C4
:10165000F9E71248001F006808B90320F3E70F48B4
:1016600008380068A0B90420EDE70B48006878B995
:101670000A48006801280BD10848001F00680128AB
:1016800006D1064808380068012801D101490870D0
:101690000020D8E7320000200002404210024242FF
:1016A00010B51F210020FFF773FBC0F38204204612
:1016B00010BD00001CB500240121452000F04AFBAC
:1016C0000121880300F086FB012000F04FFF8620F7
:1016D000009003208DF8050002208DF80400002002
:1016E0008DF806008DF8070069463148FFF7CAFEFD
:1016F0000B2201212E48FFF70DFF0B2202212C485F
:10170000FFF708FF0B2207212948FFF703FF3220CC
:10171000009069462748FFF7B5FE0B2201212548B6
:10172000FFF7F8FE0B2204212248FFF7F3FE0B22FD
:1017300005212048FFF7EEFE4FF4D04000906946A7
:101740001D48FFF79FFE0B2211461B48FFF7E2FEE4
:101750000B220D211848FFF7DDFE0B220E21164843
:10176000FFF7D8FE0820009003208DF80500012027
:101770008DF8040000208DF806008DF807006946FA
:101780000E48FFF77FFE00200D490860322001F06F
:10179000C7FD01200B49C1F88C02FEF7C8FFFFF717
:1017A00039FA04460CB901201CBD0020FCE70000FA
:1017B000000002400008024000180240000C0240F5
:1017C0008C8241420080414270B506460F484088F5
:1017D000401E83B20D480088401E82B20021084698
:1017E00000F088F800240CE0002504E0304600F00A
:1017F000D9F9681C85B205484088A842F6DC601C0F
:1018000084B202480088A042EEDC70BD2A000020AD
:1018100000B502460F4882716AB9362000F0B6F969
:101820004C2000F0B9F94FF4F0700A4948804FF4A9
:10183000A07008800CE0362000F0A8F92C2000F001
:10184000ABF94FF4A070034948804FF4F070088062
:1018500000BD00002A00002070B504460D46164663
:101860002B4622462946204600F044F8304600F038
:1018700099F970BD2DE9F04304460D4616461F4602
:10188000DDF81C80B44201DCBD4201DDBDE8F0831F
:101890003B4632462946204600F02CF8301B401CBF
:1018A00084B2781B401C85B20BE0A94602E040469A
:1018B00000F078F9B9F10000A9F101011FFA81F9EE
:1018C000F5D1201EA4F101018CB2EED100BFDDE7FD
:1018D00010B50246012000E050430B1EA1F10104A7
:1018E000E1B2F9D110BD0000014800887047000046
:1018F0008000006C30B504460D462A2000F046F901
:10190000201200F049F9E0B200F046F9101200F0A0
:1019100043F9D0B200F040F92B2000F037F928123B
:1019200000F03AF9E8B200F037F9181200F034F993
:10193000D8B200F031F92C2000F028F930BD0000B9
:101940002DE9F84F80460E4617461C46B346204602
:10195000E31704EB5373DB1021464FEAE47C04EBFE
:101960005C7C4FEAEC0CA4EBCC0CBCF1000F02D079
:101970004FF0010C01E04FF0000C6344224604EBF1
:10198000D27C4FEA6C0C03FB0CF3DBB20093A7F1A3
:101990002000C7B2002556E00C2C07D107EB47000A
:1019A0002B4901EB800010F8059013E0102C05D1B5
:1019B000284800EB071010F805900BE0182C07D111
:1019C00007EBC700244901EB800010F8059001E007
:1019D000BDE8F88F4FF0000A2FE009F0800030B129
:1019E0001E48028831464046FFF736FF07E00A9856
:1019F00028B91B48028831464046FFF72DFF4FEAC1
:101A000049604FEA1069701C86B216484088B0429F
:101A100000DCDDE7A6EB0B00A0420AD15E4608F130
:101A200001001FFA80F80F480088404500DCCFE72E
:101A300006E00AF1010000F0FF0ABAF1080FCCDB62
:101A400000BF681CC5B200988542A5DB00BFBFE798
:101A5000A8F700081CFC00080C0201082600002062
:101A6000280000202A0000202DE9F84704460D46F2
:101A700090469946DDE9096704F0FF0A08EB040087
:101A80001FFA80F809EB05001FFA80F916E04445BB
:101A900002DB5446A81985B24D4500DB14E0002056
:101AA00000903A78334629462046FFF749FF3046F2
:101AB00006EBD07104EB61018CB27F1C38787E2874
:101AC00002DC38782028E2DA00BFBDE8F8872DE98B
:101AD000FF4F82B0064692461F46DDE90F480020C0
:101AE000019000254DE0781B401EC1B20A20FFF78F
:101AF000EFFEBAFBF0F00A21B0FBF1F201FB120994
:101B0000019850BB781EA84227DDB9F1000F22D101
:101B100008F0800078B108F00100A34604EBDB7107
:101B2000491001FB0561009088B2234630220399D9
:101B3000FFF706FF0EE008F00100A34604EBDB719F
:101B4000491001FB0561009088B2234620220399C9
:101B5000FFF7F6FE13E00120019008F00100A34614
:101B600004EBDB71491001FB0561009088B209F1BB
:101B70003001CAB223460399FFF7E2FE00BF681C9A
:101B8000C5B2BD42AFDB06B0BDE8F08F01490880A9
:101B9000704700007E00006C01490880704700001B
:101BA0008000006C0112044A1180C1B24FF0D8428B
:101BB000A2F88010704700008000006C2DE9F04111
:101BC00006460F4690461D460024002E2BD100BF2E
:101BD00027E058F8240015A1FEF739FB00BB55F8A3
:101BE000240013A1FEF733FB18B900201149086047
:101BF00016E055F8240010A1FEF729FB20B90020BB
:101C00000C49091D08600BE055F824000BA1FEF7F4
:101C10001EFB28B90120074908600949C1F8A8023C
:101C2000641CBC42D5D307A0BDE8F0816C6564009C
:101C300031000000A4824242320000003300000064
:101C4000008042422F53544D3332463478374C454E
:101C5000442E68746D6C00001CB50121202000F03A
:101C600079F801208DF804004002009003208DF8DF
:101C7000050000208DF8060001208DF80700694658
:101C80000A48FFF7FFFB4FF400710848FFF767FCB5
:101C90004FF48060009069460448FFF7F3FB4FF46F
:101CA00080610248FFF75BFC1CBD0000001402408D
:101CB00000BFFEE77047000070B5002100230F222F
:101CC000C4781CB3174C246804F4E064C4F5E064E1
:101CD000C4F30721C1F10404E3B20A4144789C40F3
:101CE000E1B28478144021430C07210E0E4C057894
:101CF0006155047804F01F050124AC4005786D118E
:101D0000AD0005F1E025C5F8004109E0047804F0D4
:101D10001F050124AC40054D0678761145F8264094
:101D200070BD00000CED00E000E400E080E100E0A8
:101D300002490143024A1160704700000000FA05A1
:101D40000CED00E0014908627047000000000E42FF
:101D50007047000029B1064A12680243044B1A601A
:101D600004E0034A12688243014B1A607047000086
:101D70003038024029B1064A12680243044B1A6007
:101D800004E0034A12688243014B1A607047000066
:101D90001038024029B1064A12680243044B1A6007
:101DA00004E0034A12688243014B1A607047000046
:101DB0003838024029B1064A12680243044B1A60BF
:101DC00004E0034A12688243014B1A607047000026
:101DD0004038024029B1064A12680243044B1A6097
:101DE00004E0034A12688243014B1A607047000006
:101DF00044380240F0B500210022002402250026CC
:101E00000223324F3F6807F00C0121B1042905D0AD
:101E1000082937D105E02E4F076036E02D4F0760C7
:101E200033E02A4F3F1F3F68C7F38056274F3F1FBD
:101E30003F6807F03F036EB1264FB7FBF3F7DFF8BB
:101E40008CC0ACF1040CDCF800C0CCF3881C07FBA0
:101E50000CF40CE01E4FB7FBF3F7DFF870C0ACF1E9
:101E6000040CDCF800C0CCF3881C07FB0CF4174F03
:101E70003F1F3F68C7F301477F1C7D00B4FBF5F7A8
:101E8000076002E0124F076000BF00BF0F4F3F68BE
:101E900007F0F0010909104F7A5C0768D7404760E6
:101EA0000A4F3F6807F4E051890A0B4F7A5C476894
:101EB000D7408760054F3F6807F46041490B064FE4
:101EC0007A5C4768D740C760F0BD00000838024020
:101ED0000024F40000127A000000002010B5014632
:101EE0000022002300204A11012A02D10A4C236853
:101EF00008E0022A03D1084C7034236802E0064C43
:101F00007434236801F01F02012494401C400CB17A
:101F1000012000E0002010BD003802400021094AE5
:101F200011701170012802D0042808D103E00121AA
:101F3000044A117004E00521024A117000E000BF5C
:101F400000BF7047703802400149086070470000C8
:101F50003C0E4742002100F44072B2F5407F08D1A8
:101F6000094A116821F4F811084A02401143064A4F
:101F70001160054A68321268C0F30B031A43024B22
:101F800068331A607047000008380240FFFCFF0FFA
:101F900010B54FF4807000F0D5F8012805D100028B
:101FA00000F024F80120034908604FF40030FFF7E7
:101FB0004FF810BDA0824242014600BF080900EB65
:101FC0008000420001F00F001044C0B2704701468B
:101FD000002204E0501CC2B2A1F10A00C1B20A29D9
:101FE000F8DA100741EA10607047000081B241F052
:101FF0008001044A126802F0800262EA0101014A8B
:10200000116070470C2800403EB541F6FF74012175
:102010000807FFF7CFFE0120FFF794FE002000F035
:10202000FFF845F25001884231D00120FFF776FFDA
:1020300004E0601C84B20A2001F072F94120FFF72D
:102040004DFF0028F5D00CB901203EBD4FF4807043
:10205000FFF780FF0120FFF777FF7F20019000202E
:102060000090FF200290684600F0A8F8002332227A
:102070001E21102000F0C2F9032321220421142084
:1020800000F0AAF945F25001002000F05FFA0020AC
:10209000DBE7000008B50022009200200021104A72
:1020A000126802F04002CAB9421E0D4B1A6000BF0E
:1020B0000B4A126802F04001009A521C0092009AEA
:1020C000B2F5803F01D00029F2D0054A126802F033
:1020D00040020AB1012002E0002000E0012008BD1A
:1020E0000C2800400348006820F080000149086087
:1020F000704700000C28004070B506460C460025CD
:102100000E4800680E4900EA0105280CE070C5F38E
:102110000420607005F03F00A070C5F342302070CD
:102120005EB9E078FFF748FFE0706078FFF744FFA2
:102130006070A078FFF740FFA07070BD04280040D9
:102140003FFFFF0010B5014600200022054B1B6831
:10215000054C03EA040202EA01030BB1012000E08E
:10216000002010BD0C2800407F3F010070B50646DE
:102170000C4600250F4800680F4900EA0105C5F329
:1021800005402070C5F30620607005F07F00A07048
:1021900005F48000000CE0705EB92078FFF70CFFBA
:1021A00020706078FFF708FF6070A078FFF704FFE9
:1021B000A07070BD002800407F7F7F0030B50446CE
:1021C0000025CA201549086053200860FFF762FF08
:1021D00000B91DE011481C38006820F040000F498C
:1021E0001C39086008460068216808430B491C39FF
:1021F00008600A491439A068086008460068A18888
:1022000040EA0140054914390860FFF76BFF0125DA
:10221000FF2002490860284630BD00002428004005
:1022200008B501460020009004480090009800EB9B
:10223000810000900098006808BD00005028004010
:102240002DE9F04105460C46002600274DB960787F
:1022500000F01000102804D1607820F010000A303F
:10226000607005B908E06078FFF7A6FE0646A07822
:10227000FFF7A2FE064600BF55B1E0780004617882
:1022800040EA0120A1780843217840EA413611E074
:10229000E078FFF79CFE4FEA00486078FFF797FE72
:1022A00048EA0028A078FFF792FE48EA0008207864
:1022B00048EA4036CA201249086053200860FFF7F8
:1022C000E9FE08B9002714E00E4830400C492039D7
:1022D0000860FFF707FF0A481C38006800F020007C
:1022E00030B900F003F908B9002702E0012700E047
:1022F0000127FF20024908603846BDE8F081000050
:10230000242800403FFFFF002DE9F04105460C4620
:10231000002600274DB92E48006800F0400000B1AB
:1023200002E00020E07000BF0DE02948006800F0E6
:10233000400020B12078FFF73FFE064602E0002073
:10234000E07000BF00BF55B120780004617840EA1A
:102350000120A1780843E17840EA014611E02078A5
:10236000FFF735FE4FEA00486078FFF730FE48EA95
:102370000028A078FFF72BFE48EA0008E07848EA3A
:102380000046CA2012491C31086053200860FFF73C
:1023900081FE08B9002713E00E4830400C49083987
:1023A0000860FFF79FFE0A48006800F0200030B97F
:1023B00000F09CF808B9002702E0012700E001279F
:1023C000FF2003491C3108603846BDE8F081000059
:1023D000082800407F7F7F00F8B504460D46174669
:1023E0001E468DF802708DF801508DF800608DF852
:1023F000034069460020FFF723FFF8BDF8B5044607
:102400000D4617461E468DF800408DF801508DF898
:1024100002708DF8036069460020FFF775FFF8BD74
:102420001CB54FF48060FFF78DFE012831D180028A
:10243000FFF7DCFD1948006808B9012000E0002022
:102440001649086016490020FFF790FE144880786E
:10245000009013484378027812A1184800F0C8FD94
:10246000164917A000F0B4FD17490020FFF744FEFD
:102470001548007814498978CDE90010124843784E
:10248000C27812A10D4800F0B3FD0C490CA000F079
:102490009FFD4FF48000FEF7DBFD1CBDA882424289
:1024A0004400002054696D653A20252E32643A2597
:1024B0002E32643A252E32640000000044020020CF
:1024C00025730D0A00000000480000204461746577
:1024D0003A20323025642D252E32642D252E32648B
:1024E00020204461792025640000000008B5002206
:1024F000009200200021CA22134B1A6053221A6056
:10250000114A183A126822F0A0020F4B183B1A60C9
:1025100000BF0D4A183A126802F02001009A521CBE
:102520000092009AB2F5003F01D00029F1D0064A8E
:10253000183A126802F020020AB1012000E00020DF
:10254000FF22014B1A6008BD2428004008B5002274
:102550000092044A0092009A02EB80020092009AD4
:10256000116008BD50280040704700000149086014
:1025700070470000DC0027420CB50020019000905D
:102580003448006840F480303249086000BF314868
:10259000006800F4003000900198401C0190009801
:1025A00018B90198B0F5A04FF1D12A48006800F49D
:1025B000003010B10120009001E000200090009850
:1025C000012846D123484030006840F0805021491E
:1025D000403108602048006840F440401E490860CF
:1025E0001C48083000681B4908310860084600682C
:1025F00040F4004008600846006840F4A0500860BD
:102600001648091F0860081F006840F08070091F05
:10261000086000BF0F48006800F000700028F9D083
:1026200040F205700E4908600A480830006820F042
:1026300003000849083108600846006840F00200BD
:10264000086000BF03480830006800F00C0008284C
:10265000F8D10CBD0038024000700040085440071B
:10266000003C0240042808D14FF0E021096941F004
:1026700004014FF0E022116107E04FF0E021096909
:1026800021F004014FF0E022116170477047000013
:1026900010B504466FF00400FFF7E4FFE11704EB08
:1026A0005171C1F3C701074A11701046007800EB61
:1026B0004001C1EBC0104FF6FF7101EAC0000249B2
:1026C000088010BD200000202200002010B5154811
:1026D000006840F47000134908601348006840F037
:1026E00001001149086000200F49083108600E48B8
:1026F00000680E4908400C4908600D48091D086033
:10270000081F006820F48020091F08600020064987
:102710000C310860FFF730FF4FF00060014980394D
:10272000086010BD88ED00E000380240FFFFF6FEB3
:102730001030002400B59DB001210846FFF72AFBA8
:102740000F200790002008906020099000200A9038
:102750000B900C900D901520009001900520029098
:102760000020039004900590069006200E90002013
:102770000F90109010201190002012901490139040
:10278000159016904FF480501790002018904FF439
:102790008040199000201A9007A81B90CDF870D0A7
:1027A0000EA8FEF775FC01210620FEF757FC1DB0B0
:1027B00000BD00001CB501217820FFF7CBFA0121F4
:1027C0000220FFF7C7FA0C220E216248FEF7A2FE94
:1027D0000C220F215F48FEF79DFE0C2200215D4870
:1027E000FEF798FE0C2201215A48FEF793FE0C22B8
:1027F00007215948FEF78EFE0C2208215648FEF7A5
:1028000089FE0C2209215448FEF784FE0C220A217D
:102810005148FEF77FFE0C220B214F48FEF77AFE4F
:102820000C2211464C48FEF775FE0C220D214A4839
:10283000FEF770FE0C220E214748FEF76BFE0C22BD
:102840000F214548FEF766FE0C2208214148FEF79D
:1028500061FE0C2209213F48FEF75CFE0C220A2192
:102860003C48FEF757FE0C2204213A48FEF752FE80
:102870000C2205213748FEF74DFE0C221146374841
:10288000FEF748FE0C2211463548FEF743FE4CF297
:102890003370009002208DF8040000208DF80600AF
:1028A00003208DF8050001208DF8070069462948AE
:1028B000FEF7E8FD4FF68070009002208DF80400CE
:1028C00000208DF8060003208DF8050001208DF80A
:1028D000070069462048FEF7D5FD4FF48050009070
:1028E00002208DF8040000208DF8060003208DF8EA
:1028F000050001208DF8070069461848FEF7C2FD63
:102900004FF48050009002208DF8040000208DF8D4
:10291000060003208DF8050001208DF807006946A8
:102920000F48FEF7AFFD4FF40040009001208DF8F6
:10293000040000208DF8060002208DF8050001201B
:102940008DF8070069460748FEF79CFD01200649FF
:1029500008601CBD000C0240001002400014024040
:102960000018024000040240BC82404210B5FFF74C
:1029700021FFFFF7DFFE322000F0D2FCD020FFF76E
:1029800005F9FEF7B1FF64498880FEF7ADFF6249A3
:1029900088800846818861A000F01AFBE920FFF7D3
:1029A000F5F82020FFF7F8F81120FFF7EFF84FF4C3
:1029B000FA7401E0601E84B2002CFBDC3A20FFF7C1
:1029C000E5F85520FFF7E8F8D120FFF7DFF8002001
:1029D000FFF7E2F86520FFF7DFF81F20FFF7DCF8CC
:1029E000D020FFF7D3F80720FFF7D6F80720FFF72E
:1029F000D3F88020FFF7D0F83620FFF7C7F84C2037
:102A0000FFF7CAF8C120FFF7C1F81020FFF7C4F89C
:102A10001020FFF7C1F80220FFF7BEF80220FFF7F1
:102A2000BBF8C020FFF7B2F80020FFF7B5F835205B
:102A3000FFF7B2F80020FFF7AFF80020FFF7ACF87F
:102A40000120FFF7A9F80220FFF7A6F8C420FFF73E
:102A50009DF80320FFF7A0F8C520FFF797F80120A5
:102A6000FFF79AF8D220FFF791F80120FFF794F8CA
:102A70002220FFF791F8E720FFF788F83820FFF7CA
:102A80008BF8F320FFF782F80820FFF785F8122073
:102A9000FFF782F81220FFF77FF80820FFF77CF895
:102AA000C820FFF773F80120FFF776F85220FFF7F0
:102AB00073F83720FFF770F81020FFF76DF80D203E
:102AC000FFF76AF80120FFF767F80420FFF764F8C2
:102AD0005120FFF761F87720FFF75EF80120FFF73C
:102AE0005BF80120FFF758F80D20FFF755F8082094
:102AF000FFF752F88020FFF74FF80020FFF74CF85F
:102B00002920FFF743F80020FEF782FE4FF6FF7002
:102B1000FEF75AFE10BD00002A000020204C43445E
:102B20002049443A25780D0A0000000010B5012123
:102B3000074800F06AF8012804D1064800680A3006
:102B4000044908600121024800F050F810BD00005F
:102B500000040040780000207FB505460C460121A6
:102B60000220FFF727F90295ADF804400020ADF8E8
:102B70000C00ADF8060001A90F4800F061F8012231
:102B800011460D4800F052F801210B4800F02EF8D4
:102B90001D208DF8000001208DF8010003208DF824
:102BA000020001208DF803006846FFF785F8012137
:102BB000014800F01EF87FBD0004004010B501215F
:102BC000084800F022F838B10748006808B9012029
:102BD00000E00020044908600121024800F006F8E6
:102BE00010BD000000080040A8824242CA43028291
:102BF000704721B1028842F00102028004E002889D
:102C00004FF6FE731A400280704730B5024600202E
:102C100000230024158A05EA0103958905EA0104C9
:102C200013B10CB1012000E0002030BD1AB183893E
:102C30000B43838102E083898B43838170470000CB
:102C400000220288184B98420ED0184B98420BD0A5
:102C5000B0F1804F08D0164B984205D0154B9842E2
:102C600002D0154B984204D14FF68F731A404B880F
:102C70001A43124B984207D0114B984204D04FF69A
:102C8000FF431A400B891A4302804B68C3620B88CA
:102C90000385054B984202D0044B984201D18B7AB0
:102CA0000386012383827047000001400004014035
:102CB0000004004000080040000C004000100040EC
:102CC0000014004010B540F225511D4800F0BAF83C
:102CD00010B31B4800F070F9C4B21A48008800F421
:102CE0000040C8B91748008800F4804060B10A2C41
:102CF00003D000201349088020E01248008840F4E7
:102D000000401049088019E00D2C06D10D480088BC
:102D100040F480400B49088010E00A480088C0F366
:102D20000D0009490C5407480088401C05490880DB
:102D300008460088C72801DD0020088010BD00007B
:102D400000100140240000207C01002010B588B054
:102D5000044601210846FEF7FDFF01211020FFF780
:102D600039F8072209212448FEF7D4FB07220A215B
:102D70002148FEF7CFFB4FF4C060069002208DF88B
:102D80001C008DF81D0000208DF81E0001208DF81C
:102D90001F0006A91848FEF775FB02940020ADF845
:102DA0000C00ADF80E00ADF81000ADF814000C20CA
:102DB000ADF8120002A9114800F094F801210F4863
:102DC00000F027F840210D4800F01AF8012240F2E7
:102DD00025510A4800F060F825208DF804000320F2
:102DE0008DF805008DF8060001208DF8070001A878
:102DF000FEF762FF08B010BD000002400010014065
:102E000001F40072B2F5007F00D100BFCA43028016
:102E1000704721B1828942F40052828104E08289A4
:102E20004DF6FF731A408281704702460020B1F5CB
:102E3000007F00D100BF13880B400BB1012000E0E0
:102E40000020704770B502460024002300250020B2
:102E500040F66A16B14200D100BFC1F3421501F03D
:102E60001F03012606FA03F3012D02D19689334090
:102E700006E0022D02D1168A334001E0968A3340E3
:102E80000C12012606FA04F41688344013B10CB172
:102E9000012000E0002070BDF0B5034600240026AC
:102EA0000025002040F66A17B94200D100BF18463D
:102EB000C1F3421401F01F06012707FA06F5012CA1
:102EC00001D10C3004E0022C01D1103000E01430AC
:102ED0001AB107682F43076002E00768AF43076035
:102EE000F0BD00002DE9FF4705460E460024A1462F
:102EF00000BFA046B08900B100BF2C8A24F4405422
:102F0000F08804432C82AC8941F20C608443B08881
:102F100031890843718908430443AC81AC8A24F4A5
:102F20004074B0890443AC826846FEF763FF2048D2
:102F3000854202D01F48854202D1DDF80C9001E0A5
:102F4000DDF80890A88900F4004040B109EBC90001
:102F500000EB091031684900B0FBF1F707E009EB1D
:102F6000C90000EB091031688900B0FBF1F764205B
:102F7000B7FBF0F004012009642101FB1078A88957
:102F800000F4004040B1322000EBC800B0FBF1F08B
:102F900000F00700044308E0322000EB0810642131
:102FA000B0FBF1F000F00F0004432C81BDE8FF8777
:102FB000001001400014014001468888C0F3080059
:102FC0007047C1F308028280704700BFFEE700002F
:102FD0000FB4054B10B503A9044A029800F02CF871
:102FE00010BC5DF814FB0000754400086C01002063
:102FF0000FB4084B10B504A902AA039800F01CF8FE
:10300000044602A9002000F077F9204610BC5DF8C4
:1030100014FB0000F932000802E008C8121F08C1C2
:10302000002AFAD170477047002001E001C1121F49
:10303000002AFBD1704700002DE9FF4F8DB09B4661
:103040000F460446002606E025280BD05A460F9965
:103050009047641C761C20780028F5D111B03046CA
:10306000BDE8F08F0025A8460122984900E00543FD
:1030700014F8013F203B02FA03F00842F7D1207810
:103080002E2817D114F8010F45F004052A280ED078
:103090006FF02F022078A0F1300109290AD808EB3F
:1030A000880102EB410100EB0108641CF2E757F8CC
:1030B000048B641C20786C280DD004DC4C2812D0C2
:1030C0006A2811D104E074280DD07A280CD10AE0C6
:1030D00045F4001507E0617845F48015814202D17E
:1030E000641C05F58015641C2278692A45D008DC2B
:1030F000002AB3D0582A69D0632A10D0642A08D194
:103100003BE0702A67D0732A13D0752A5CD0782AE6
:103110005CD010465A460F999047761CD3E017F8BA
:10312000040B8DF8000000208DF80100E946012015
:1031300003E057F8049B4FF0FF3069074FF000059C
:1031400001D40AE06D1C45450DDA8542FADB19F819
:1031500005100029F6D106E06D1C8542FCDB19F84C
:1031600005100029F8D12E4404E019F8010B5A4645
:103170000F9990476D1EF8D2A5E00A200021CDE9F5
:103180000801C5F3025002280DD001CFC117031E5C
:1031900071F100030DDA4FF0000CD0EB0C006CEB7A
:1031A00001012D2308E0FF1D27F00707F7E80201C2
:1031B000EDE72B0504D52B238DF8283001233BE0C8
:1031C000EB0739D02023F7E70A2000E01020002188
:1031D000CDE9080107E01020002145F00405CDE904
:1031E00008014FF00808C5F3025002280FD001CFA4
:1031F00000214FF0000A2B071FD5702A0DD0DDE902
:1032000008C38CF0100C5CEA030C0CD015E0FF1D19
:1032100027F00707F7E80201EBE740228DF82820A6
:103220004FF0010A0BE050EA010306D030238DF87D
:1032300028308DF8292002239A46582A04D024A247
:103240000DF120090B9209E026A2F9E7DDE9082338
:10325000FDF727F80B9B9B5C09F8013D50EA010242
:10326000F4D1ADEB090020300890680701D44FF08D
:1032700001080899884502DDA8EB010000E0002064
:103280008046002506E00AA85A46405D0F999047FF
:103290006D1C761C5545F6DB04E030205A460F992C
:1032A0009047761CB8F10001A8F10108F5DC05E0B3
:1032B00019F8010B5A460F999047761C0899481E39
:1032C00008900029F4DC641CC5E600000928010010
:1032D000303132333435363738396162636465668C
:1032E000000000003031323334353637383941424E
:1032F00043444546000000000A68531C0B601070F0
:103300007047000010B5044600F086FE0022034915
:1033100041F2883006F0B2F910BD00000533000814
:1033200070B504464FF4077094FBF0F0C6B24FF44A
:10333000077094FBF0F100FB114085B205E04FF4FB
:10334000077000F009F8701EC6B2002EF7D115B153
:10335000284600F001F870BD0146114A12884A4320
:103360004FF0E0235A6100229A611A46126942F036
:1033700001021A6100BF4FF0E022106900F0010263
:103380001AB100F48032002AF5D04FF0E022126921
:1033900022F001024FF0E0231A6100229A61704787
:1033A000220000202DE9FC4705468846164600BF4E
:1033B00055B900BF47A340F2BB224FA152A0FFF76F
:1033C00007FE00BFBDE8FC8700BF70892A2803DA2A
:1033D000304605F001FDF5E7776807F10E04208817
:1033E000B0F5807F08D12079062805D160790428BE
:1033F00002D16088082803D0304605F0EDFCE1E7F3
:10340000D4F80E000190A0690090281D08B16868EA
:1034100010B94FF0000907E000986968884201D1AF
:10342000012000E000208146B9F1000F01D0012009
:1034300000E00220034604F1080201A9284600F03A
:1034400031FEE088B0F5807F03D0B0F5007F3AD13F
:1034500038E0B9F1000F33D0022003F024FFE08000
:10346000D4F80E00A0616868C4F80E0000BF95F89B
:103470002200062808D000BF16A340F211322D49C1
:1034800021A0FFF7A5FD00BF00BFA068C4F812008F
:10349000A089E082A0683860A089B880D8F80000D0
:1034A000A060B8F80400A081D8F80000C7F80600B2
:1034B000B8F80400788131462846AA69904700E0B0
:1034C00000BF01E000E000BF00BF304605F084FC13
:1034D00000BF77E74C5749505C6C7769702D312EEF
:1034E000342E315C7372635C6E657469665C6574FE
:1034F000686172702E6300006E6574696620213DFC
:10350000204E554C4C000000417373657274696F16
:103510006E2022257322206661696C6564206174C7
:10352000206C696E6520256420696E2025730D0A64
:1035300000000000643302082DE9FE4F064688466D
:103540004FF00A09CA460A27002400200290019081
:10355000BB46009000BF6BE004EB84006F4901EBB9
:103560008000857C0A2F02D10DB967B25EE0002D84
:103570005CD000BF012D0AD0022D08DA00BF68A37D
:1035800040F22B126FA17FA0FFF722FD00BF00BF0A
:103590005EB104EB8401614A02EB81013068496845
:1035A000884202D160B2BDE8FE8F012D2AD104EB22
:1035B00084005A4951F8200088B104EB840001EBE3
:1035C0008000C17C0098814230DB4FFA84FB04EB21
:1035D0008400524901EB8000C07C009026E004EB9F
:1035E00084004E4901EB8000C17C029881421DDBC2
:1035F0004FFA84F904EB8400484901EB8000C07C59
:10360000029013E0022D11DB04EB8400434901EB2F
:103610008000C17C0198814208DB4FFA84FA04EBF8
:1036200084003E4901EB8000C07C0190601CC4B264
:103630000A2C91DB08F0020020B90A2F05D108F00E
:10364000010010B94FF0FF30ADE70A2F01DAFCB2EC
:1036500034E0BAF10A0F12DA0AF0FF0400BF04EBFB
:1036600084002E4951F8200040B100BF2CA340F245
:1036700071124FA143A0FFF7ABFC00BF0EE0B9F100
:103680000A0F02DA09F0FF0408E0BBF10A0F02DAC0
:103690000BF0FF0402E04FF0FF3084E700BF0A2C7C
:1036A00008DB00BF1EA340F2831247A135A0FFF73D
:1036B0008FFC00BF00BF204600F0A6F800BF0A2C18
:1036C00008DB00BF16A340F287123FA12DA0FFF731
:1036D0007FFC00BF00BF00BF04EB84000F4901EB7B
:1036E0008000807C40B100BF0DA34FF4C4723BA1A9
:1036F00024A0FFF76DFC00BF00BF36B104EB8401CE
:10370000064A02EB810130684860002004EB840126
:10371000024A02EB8101C87460B244E710B3012091
:103720004C5749505C6C7769702D312E342E315CCA
:103730007372635C6E657469665C657468617270EF
:103740002E6300007374617465203D3D204554482C
:103750004152505F53544154455F50454E44494E89
:1037600047207C7C207374617465203E3D20455465
:10377000484152505F53544154455F535441424C69
:1037800045000000417373657274696F6E202225D5
:103790007322206661696C6564206174206C696EB7
:1037A0006520256420696E2025730D0A0000000045
:1037B0006172705F7461626C655B695D2E71203D42
:1037C0003D204E554C4C000069203C204152505F3A
:1037D0005441424C455F53495A4500006172705F45
:1037E0007461626C655B695D2E7374617465203D04
:1037F0003D204554484152505F53544154455F4524
:103800004D5054590000000010B5044604EB8400EC
:103810000C4951F8200060B104EB8401094A52F8C8
:10382000210005F0D9FA002004EB8401054A42F892
:103830002100002004EB8401024A02EB810188741C
:1038400010BD000010B301202DE9FC4704460F46CF
:103850001546A94600BF44B900BF59A340F27532CE
:1038600060A164A0FFF7B4FB00BF00BF00BF47B971
:1038700000BF53A340F2763269A15EA0FFF7A8FB18
:1038800000BF00BF00BF45B900BF4DA340F2773273
:1038900066A158A0FFF79CFB00BF00BF0E21384671
:1038A00005F06AFB18B16FF00100BDE8FC87214606
:1038B000286802F0DFFA10B1DFF8808177E028781D
:1038C00000F0F000E02815D101208DF80000002064
:1038D0008DF801005E208DF80200687800F07F000E
:1038E0008DF80300A8788DF80400E8788DF80500BD
:1038F000E8465BE02868A1680840D4E9011211405D
:10390000884210D0288880B24FF6A96188420AD038
:1039100004F10C0020B1E06810B104F10C0902E0E0
:103920006FF00300C1E74648007800EB800045498E
:1039300001EB8000807C022812DB4149097801EB11
:103940008101404A02EB8101D9F8000049688842B0
:1039500006D13B4802783946204600F075F8A4E7C6
:1039600000261BE006EB8600364901EB8000807CD8
:10397000022811DB06EB8601324A02EB8101D9F8FD
:1039800000004968884207D12D490E70F2B23946CD
:10399000204600F059F888E7701C46B20A2EE1DB99
:1039A0003A464946204600F0D7F87EE700BF434636
:1039B00004F123023946204600F0DAFA75E70000E8
:1039C0004C5749505C6C7769702D312E342E315C28
:1039D0007372635C6E657469665C6574686172704D
:1039E0002E6300006E6574696620213D204E554CA3
:1039F0004C000000417373657274696F6E2022255C
:103A00007322206661696C6564206174206C696E44
:103A10006520256420696E2025730D0A00000000D2
:103A20007120213D204E554C4C00000069706164AE
:103A3000647220213D204E554C4C0000DC310208C0
:103A4000D000002010B3012070B505460E46144684
:103A500000BF04EB84001F4901EB8000807C02283A
:103A600008DA00BF1CA34FF4537224A12FA0FFF764
:103A7000AFFA00BF00BF04EB8400164901EB8000E1
:103A8000807C022817D104EB840001EB8000C07C0D
:103A9000E42810DB04EB84000A4602EB8000011DE1
:103AA000284600F04FFA30B9032004EB8401094A9C
:103AB00002EB8101887404EB8400064901EB80006D
:103AC00000F10C0305F123023146284600F050FABC
:103AD00070BD000010B301204C5749505C6C7769F1
:103AE000702D312E342E315C7372635C6E65746997
:103AF000665C6574686172702E6300006172705F4D
:103B00007461626C655B6172705F6964785D2E736D
:103B100074617465203E3D204554484152505F53C6
:103B2000544154455F535441424C450041737365C1
:103B30007274696F6E2022257322206661696C653C
:103B400064206174206C696E6520256420696E2094
:103B500025730D0A000000002DE9F05F80460F4636
:103B6000164608F123094FF0FF3A4146386802F043
:103B700081F938B9387800F0F000E02802D00FB1B0
:103B8000386818B96FF00D00BDE8F09F0121384684
:103B9000FFF7D2FC0446002C01DA2046F4E704EBE0
:103BA00084005A4901EB8000807C30B9012004EB8D
:103BB0008401564A02EB8101887400BF04EB840043
:103BC000524901EB8000807C01280FD004EB840077
:103BD00001EB8000807C022808DA00BF4CA340F291
:103BE000194254A15DA0FFF7F3F900BF00BF04EB39
:103BF0008400464901EB8000807C012800D03EB95A
:103C00003946404600F09EF982460EB95046BBE761
:103C100000BF46B900BF3EA340F22D425AA14FA0BB
:103C2000FFF7D6F900BF00BF04EB8400374901EB72
:103C30008000807C02280FDB56490C7004EB840066
:103C4000324901EB800000F10C034A463146404600
:103C500000F08EF9824657E004EB84002B4901EB1B
:103C60008000807C01284FD14FF0000B354617E0D3
:103C700000BF6889298988420AD1286840B100BFFD
:103C800023A340F23E4244A134A0FFF7A1F900BFB4
:103C900000BF287B012802D04FF0010B02E02D6805
:103CA000002DE5D100BFBBF1000F10D02989002203
:103CB000032004F09DFB05466DB13146284604F013
:103CC000D1FE40B1284605F087F8002503E03546CF
:103CD000284605F0D5FAA5B104EB84000B4951F84C
:103CE000200030B104EB8401084A52F8210005F0AD
:103CF00073F804EB8400054941F820504FF0000AA6
:103D000001E04FF0FF3A00BF50463DE710B30120FD
:103D10004C5749505C6C7769702D312E342E315CD4
:103D20007372635C6E657469665C657468617270F9
:103D30002E6300006172705F7461626C655B695D27
:103D40002E7374617465203D3D2050454E44494EAC
:103D500047206F7220535441424C450041737365B4
:103D60007274696F6E2022257322206661696C650A
:103D700064206174206C696E6520256420696E2062
:103D800025730D0A000000007120213D204E554C86
:103D90004C000000D00000206E6F207061636B65E6
:103DA000742071756575657320616C6C6F776564DF
:103DB000210000002DE9F84F0746884691469A46B3
:103DC000DDF828B00020009000BF47B900BF37A33E
:103DD00040F2A5423EA142A0FFF7FAF800BF00BFA3
:103DE00000222A21032004F003FB05461DB94FF0F1
:103DF000FF30BDE8F88F00BF68892A2808DA00BFC5
:103E00002AA34FF4966241A135A0FFF7E1F800BF65
:103E100000BF6E6806F10E040D9803F044FAE080CE
:103E200000BF97F82200062808D000BF1FA34FF458
:103E3000976243492AA0FFF7CBF800BF00BFDAF82A
:103E40000000A060BAF80400A0810B980168C4F8D3
:103E500012108088E082D9F800003060B9F80400C0
:103E6000B080D8F80000C6F80600B8F804007081E9
:103E7000DBF80000C4F80E000C980068A0614FF455
:103E800080702080082060800620207104206071EE
:103E90004FF4C160B08129463846BA699047009016
:103EA000284604F099FF00250098A2E74C57495096
:103EB0005C6C7769702D312E342E315C7372635CCB
:103EC0006E657469665C6574686172702E6300006B
:103ED0006E6574696620213D204E554C4C000000F3
:103EE000417373657274696F6E2022257322206698
:103EF00061696C6564206174206C696E652025645D
:103F000020696E2025730D0A000000006368656358
:103F10006B207468617420666972737420706275B6
:103F2000662063616E20686F6C64207374727563C1
:103F300074206574686172705F68647200000000CC
:103F4000643302087FB504460D460121064A201D50
:103F500004F123038DE825000391044A1946204605
:103F6000FFF728FF04B070BDE2310208DC3102081F
:103F70002DE9F04104460E4617469846756800BF85
:103F800094F82200062808D000BF0EA340F2A31226
:103F9000154916A0FFF71CF800BF00BFD8F80000B5
:103FA0002860B8F80400A8803868C5F80600B8880A
:103FB00068810820A88131462046A2699047BDE863
:103FC000F08100004C5749505C6C7769702D312EA0
:103FD000342E315C7372635C6E657469665C657403
:103FE000686172702E630000643302084173736568
:103FF0007274696F6E2022257322206661696C6578
:1040000064206174206C696E6520256420696E20CF
:1040100025730D0A0000000070B500243DE004EB9C
:1040200084001F4901EB8000857C25B304EB8400EC
:1040300001EB8000C07C401C04EB8401184A02EBB9
:104040008101C87404EB8400114601EB8000C07C40
:10405000F0280DDA04EB840001EB8000807C01285D
:104060000AD104EB840001EB8000C07C022803DB52
:104070002046FFF7C9FB0EE004EB8400084901EB82
:104080008000807C032806D1022004EB8401044ACE
:1040900002EB81018874601CC4B20A2CBFDB70BDC6
:1040A00010B301202DE9F04706460D461746984605
:1040B00000BF96F82200062808D000BF2CA340F2CB
:1040C000C31234A13DA0FEF783FF00BF00BF5DB166
:1040D000286848B13146286801F0CCFE20B928781C
:1040E00000F0F000E02803D16FF00D00BDE8F0878C
:1040F00041462846FFF720FA0446002C01DA204604
:10410000F4E7022004EB8401374A02EB8101887452
:1041100004EB8400114601EB8000866004EB840010
:1041200001EB80003968C160B9880182002004EB8E
:10413000840102EB8101C87404EB8400114651F83C
:10414000200098B104EB840051F82090002004EB8B
:10415000840142F821003B4606F1230249463046DD
:10416000FFF706FF484604F037FE00BF0020BDE71A
:104170004C5749505C6C7769702D312E342E315C70
:104180007372635C6E657469665C65746861727095
:104190002E6300006E657469662D3E687761646405
:1041A000725F6C656E203D3D204554484152505F22
:1041B0004857414444525F4C454E0000417373657B
:1041C0007274696F6E2022257322206661696C65A6
:1041D00064206174206C696E6520256420696E20FE
:1041E00025730D0A0000000010B301202DE9F041F5
:1041F00004460E464FF00E0860890E2800DC52E09F
:104200006568AF89287800F00100B0B128780128EE
:1042100009D1687888B9A8785E280ED1607B40F013
:104220001000607309E0062221492846FCF71DF8BA
:1042300018B9607B40F008006073082F03D0B7F511
:10424000C16F2BD11DE096F8290000F0200000B9C5
:1042500029E0C8F1000001B2204604F08DFE58B1FB
:1042600000BF00BF13A340F24F521BA123A0FEF7D3
:10427000AFFE00BF00BF16E03146204601F088FFC8
:104280000DE096F8290000F0200000B90BE022466E
:1042900006F123013046FFF785F800E003E000BF98
:1042A0000020BDE8F081204604F096FD0020F8E7EC
:1042B000DC3102084C5749505C6C7769702D312E07
:1042C000342E315C7372635C6E657469665C657410
:1042D000686172702E63000043616E2774206D6FF9
:1042E0007665206F76657220686561646572206905
:1042F0006E207061636B657400000000417373652C
:104300007274696F6E2022257322206661696C6564
:1043100064206174206C696E6520256420696E20BC
:1043200025730D0A0000000010B5044600BF3CB91B
:1043300000BF0BA3742214A116A0FEF749FE00BF14
:1043400000BF652084F82A006E212B2001551C48EF
:1043500060611C48A061204602F094FD002010BD61
:104360004C5749505C6C7769702D312E342E315C7E
:104370007372635C6E657469665C65746865726EA1
:10438000657469662E6300006E65746966213D4E32
:10439000554C4C00417373657274696F6E20222511
:1043A0007322206661696C6564206174206C696E9B
:1043B0006520256420696E2025730D0A0000000029
:1043C000493800089D6F000870B50446204602F089
:1043D000ABFD064616B94FF0FF3070BD21463046A2
:1043E0002269904705461DB1304604F0F5FC0026D1
:1043F0002846F2E72DE9F04180460E460EB13078AE
:1044000010B90020BDE8F081344600252BE008F10A
:10441000F40040F82540274626212046FBF706FFFA
:1044200004461CB100202070641C08E0202138469E
:10443000FBF7FCFE04460CB10020207000243D2157
:104440003846FBF7F3FE07463FB100203870781C72
:1044500008F59A7141F8250004E0002108F59A70EA
:1044600040F825106D1C102D01DA002CCFD1284604
:10447000C8E7000070B504460D46E1B20548FEF7F6
:10448000A0FD00BF80210348FEF7CFFC0028F9D033
:10449000204670BD001001400146D1E90102801A9A
:1044A000704710B50446204600F002F810BD000029
:1044B00010B5014600200FE000EB4002084B03EB73
:1044C000C2028A4207D1002200EB4003044C04EBF5
:1044D000C3031A7502E0401C0A28EDDB00BF10BDC3
:1044E00020AE0120002114E001EB41000B4A02EB59
:1044F000C000007D60B9012001EB4102074B03EBD6
:10450000C202107501EB41001A4602EBC000704771
:10451000491C0A29E8DB0020F9E7000020AE012051
:1045200070B50646FFF7DEFF05460DB9002070BDE9
:104530000D4C11E030466168FBF789FE58B9A06860
:104540002860E0686860E068A8600020E860207C7F
:1045500028742846EBE72468002CEBD12846FFF7A7
:10456000A7FF0020E3E70000903102082DE9F041A9
:1045700004460F461646D4E90110884203D14FF095
:10458000FF30BDE8F081D4E90101451AB54200DDF4
:104590003546A268206881182A463846FBF710FE87
:1045A000A0682844A0602846EBE7000070B50446E8
:1045B00031480068F0B131480068D8B1304800682F
:1045C000C0B1002512E02D48006850F8251004F114
:1045D0002E00FBF73CFE40B9C02204F13001284612
:1045E000254B1B689847608570BD6D1C244800688A
:1045F0008542E8DB04F12E00FBF722FEA72804D257
:1046000004F12E00FBF71CFE00E0A7200646122254
:104610001CA104F13000FBF7D3FD324604F12E015A
:1046200004F14200FBF7CCFD06F1120004F1300169
:10463000084419A10A6802608A8882808979817198
:10464000002206F1190004F130010A540846FBF774
:10465000F7FD064600BFB6F5803F08D300BF10A3A4
:104660004FF41F7218A11CA0FEF7B2FC00BF00BFE0
:10467000668500BFB8E70000A4000020AC00002061
:10468000A80000203C623E2A2A2A554E4B4E4F5726
:104690004E205441472000002A2A2A3C2F623E0027
:1046A0004C5749505C6C7769705F6170705C7765DE
:1046B000625F7365727665725F64656D6F5C687466
:1046C0007470642E630000006C656E203C3D2030E9
:1046D0007866666666000000417373657274696F80
:1046E0006E2022257322206661696C6564206174E6
:1046F000206C696E6520256420696E2025730D0A83
:10470000000000002DE9F04105460E4690462F4678
:1047100000BF387E012808D000BF16A340F604026F
:104720001EA12AA0FEF754FC00BF00BF01213046A5
:1047300009F02EFA01F000F804461CB94FF0FF30E2
:10474000BDE8F0812146304605F054F92A4930464B
:1047500008F0D8FB2949304606F0FEF90422284922
:10476000304607F093FB2749304608F02DFE002025
:10477000E6E700004C5749505C6C7769705F6170E8
:10478000705C7765625F7365727665725F64656D94
:104790006F5C68747470642E630000007063622D37
:1047A0003E7374617465203D3D204C495354454E21
:1047B000202863616C6C656420666F722077726F6D
:1047C0006E67207063623F290000000041737365CB
:1047D0007274696F6E2022257322206661696C6590
:1047E00064206174206C696E6520256420696E20E8
:1047F00025730D0A00000000754D00085948000897
:104800002D4D00084755000870B505460C4600219F
:10481000284605F0EFF80021284608F073FB002138
:10482000284606F099F900221146284607F02EFB8B
:104830000021284608F0C8FD204600F08BFF2846DE
:1048400005F0B4FD064626B104220249284607F0C9
:104850001DFB70BD2D4D000870B504460E46254663
:1048600015B1284600F076FF70BD00002DE9F74F26
:10487000064691464FF00008002086F82C0001986B
:1048800000782F2827D10198407820BB002414E01D
:10489000434951F83400FFF743FE8046404850F842
:1048A00034000190B8F1000F06D03D4800EBC40081
:1048B000007986F82C0002E0641C052CE8D300BFC8
:1048C000B8F1000F64D101A800F072F88046002012
:1048D00086F82C005CE03F210198FBF7A7FC054619
:1048E00015B1002028706D1C2E48006870B32E484A
:1048F000006858B300271CE02B48006850F83710B8
:104900000198FBF7A4FC98B929463046FFF772FDE1
:1049100082462548006800EBC70006F59A7306F149
:10492000F4025146D0F804C03846E047019004E054
:104930007F1C1C4800688742DEDB00BF1948006806
:10494000874203D115B16D1E3F2028700198FFF7F3
:10495000E7FD8046B8F1000F03D101A800F028F868
:104960008046B8F1000F13D0002086F82C000024F8
:104970000BE00E4850F824100198FBF745FC18B1E5
:10498000012086F82C0002E0641C042CF1D300BF47
:104990004A4641463046019B00F038F8BDE8FE8F9C
:1049A000A4310208B4000020B000002094000020D0
:1049B00070B504460CA020602068FFF7B1FD0546E5
:1049C0007DB90CA020602068FFF7AAFD054645B917
:1049D0000BA020602068FFF7A3FD05460DB900205D
:1049E0002060284670BD00002F3430342E68746D6E
:1049F0006C0000002F3430342E68746D000000000D
:104A00002F3430342E7368746D6C00002DE9F04142
:104A100004460D4616469846002D43D000202085BA
:104A200084F8F1002868E0616868606228682062A4
:104A300025602868606000BF6868002808DA00BF49
:104A40001CA340F2297225A12CA0FEF7C1FA00BFD9
:104A500000BF686860610020207600BF2068007C8D
:104A6000002808D100BF13A34FF4E6622EA123A0B3
:104A7000FEF7AEFA00BF00BF2068007CB8B1B6B147
:104A800034A16269606804F0CDFD07464FB1391D5D
:104A90006268881A6168014461606169091A61612C
:104AA00000BF04E00020206060606061207600208C
:104AB000BDE8F0814C5749505C6C7769705F61705C
:104AC000705C7765625F7365727665725F64656D51
:104AD0006F5C68747470642E6300000046696C65D6
:104AE000206C656E677468206D7573742062652034
:104AF000706F736974697665210000004173736596
:104B00007274696F6E2022257322206661696C655C
:104B100064206174206C696E6520256420696E20B4
:104B200025730D0A00000000485454502068656148
:104B300064657273206E6F7420696E636C75646552
:104B40006420696E2066696C652073797374656D85
:104B5000000000000D0A0D0A000000002DE9F74FCB
:104B600084B00C460498D0F8008000BFB8F1000F64
:104B700008D100BF4DA340F2116256A158A0FEF724
:104B800027FA00BF00BF00BF44B900BF47A340F2EF
:104B900012625EA152A0FEF71BFA00BF00BF2068A0
:104BA00008B9606820B16FF0070007B0BDE8F08F6A
:104BB000A06810B9C4F8088003E04146A06803F07B
:104BC0009BFEA068006898B1A068008940F2FF31A0
:104BD000884202DAA068008901E040F2FF30814695
:104BE00000234A464C49A06804F052F84A4E04E0BB
:104BF000D8F80460B8F80A9000BFB9F1070F42DB9B
:104C00004A4646A1304604F00DFD8246BAF1000F37
:104C100039D000200390042241A13046FBF732FB3B
:104C200008B9F51C04E0002030716FF00D00BCE7FE
:104C3000681C801BA9EB000080B202903AA1681C9E
:104C4000029A04F0EFFC07463FB934A1681C029AAF
:104C500004F0E8FC074601200390681C381A80B273
:104C600001907FB1AF420DD9681C009000202870E0
:104C70000022DDE9000142542046039A0099FFF723
:104C8000F5FD92E700BFA06803F0E3FE8346A0684D
:104C90000089B0F5806F05DABBF10A0F02DC6FF016
:104CA000040082E76FF00D007FE700004C57495089
:104CB0005C6C7769705F6170705C7765625F73656B
:104CC000727665725F64656D6F5C68747470642E73
:104CD000630000007020213D204E554C4C00000028
:104CE000417373657274696F6E202225732220668A
:104CF00061696C6564206174206C696E652025644F
:104D000020696E2025730D0A0000000068732021C1
:104D10003D204E554C4C000010AF01200D0A000004
:104D200047455420000000002000000070B50546F3
:104D30000E462C462CB921463046FFF765FD002073
:104D400070BD207E401C2076207E042805D121469F
:104D50003046FFF759FD0020F2E74CB1206838B12A
:104D60002146304600F0A2F810B1304606F0C8FCEB
:104D70000020E5E72DE9FF4107460E4698466FF013
:104D800009043D46B8F1000F02D1029800B18DB977
:104D9000029838B102980189304608F019F9029852
:104DA00004F01AF829463046FFF72EFD002004B023
:104DB000BDE8F08102980189304608F009F92868B9
:104DC00000281BD13246294602A8FFF7C7FE044639
:104DD00000BF002C11D0601D00280ED00930002823
:104DE0000BD0801F002808D000BF10A340F2D6725D
:104DF00018A123A0FEF7ECF800BF00BF601D30B182
:104E0000A86820B1A86803F0E7FF0020A86024B9D3
:104E10002946304600F04AF806E004F10E0018B9C1
:104E200029463046FFF7F0FC0020C0E74C574950B8
:104E30005C6C7769705F6170705C7765625F7365E9
:104E4000727665725F64656D6F5C68747470642EF1
:104E500063000000687474705F70617273655F72E4
:104E60006571756573743A20756E657870656374E5
:104E700065642072657475726E2076616C7565006C
:104E8000417373657274696F6E20222573222066E8
:104E900061696C6564206174206C696E65202564AD
:104EA00020696E2025730D0A000000002DE9F843EB
:104EB00005460C464FF0000900276069002849D1DB
:104EC000206830B921462846FFF79EFC0020BDE847
:104ED000F8832068FFF7E0FA002805DC2146284621
:104EE000FFF792FC0020F2E7E06808B126691CE0B9
:104EF000A87F00F0080010B1E88E0C3800E0E88EC2
:104F0000460000BFB0B202F069FDE060E06808B1A1
:104F1000266105E0304606EBD0714E10642EF1DCC0
:104F200000BFE06808B90020D1E73246E168206898
:104F3000FFF71CFB0646002E05DA21462846FFF740
:104F400063FC0120C3E76661E06860606662E06858
:104F5000E06100BF94F82C0000284BD1B5F8660042
:104F60006169884203D2B5F86600009012E0A08A19
:104F700080B2009000BFBDF800106069884208D080
:104F800000BFE7A340F28B32EFA1F8A0FEF720F8B4
:104F900000BF00BFA87F00F0080010B1E88E0C38F9
:104FA00000E0E88E1FFA80F84FEA4800BDF80010D4
:104FB000884203DA4FEA4840000C009094F82C0035
:104FC00008B1012000E0002003466A4628466168D7
:104FD00000F0D6FB0746002F0BD14FF00109BDF8BA
:104FE0000010606808446060BDF800106069401AF5
:104FF000606199E2B5F8660000906168E0698842F6
:1050000053D96168E069401AB5F86610884203DD3B
:10501000B5F86600009015E000BF6168E069401ACD
:10502000B0F5803F08DB00BFBDA340F2A932DAA192
:10503000CEA0FDF7CDFF00BF00BFA08BA188401A16
:1050400080B20090A87F00F0080010B1E88E0C3804
:1050500000E0E88E1FFA80F84FEA4800BDF8001023
:10506000884203DA4FEA4840000C009094F82C0084
:1050700008B1012000E0002003466A462846616826
:1050800000F07EFB07465FB94FF00109BDF8001044
:10509000606808446060BDF800106069401A606193
:1050A000B5F8660008B9484611E7DAE1BDF8000036
:1050B00008B948460BE794F8F100052815D2DFE857
:1050C00000F0031534A7F000E0690078BB490968D7
:1050D0000978884203D1012084F8F1002085606AB4
:1050E000401E6062E069401CE061B9E1208D052846
:1050F00005D100202085022084F8F10014E0E06949
:105100000078218DAD4A1268515C884203D1208D10
:10511000401C208502E0002084F8F100606A401EF7
:105120006062E069401CE0619AE1208DB0B9E069FD
:10513000007820280BD0E0690078092807D0E069C2
:1051400000780A2803D0E06900780D2806D1606A4B
:10515000401E6062E069401CE06181E1E069007826
:1051600097490968097888420FD0E06900782028BB
:105170000BD0E0690078092807D0E06900780A2898
:1051800003D0E06900780D282CD1208D18B90020BB
:1051900084F8F10035E0032084F8F10000BF208D91
:1051A000FF2808DD00BF5EA340F2114285A16FA079
:1051B000FDF70EFF00BF00BF94F8280084F82D0013
:1051C0000021228D04F12E008154E06900787C4991
:1051D00009680978884202D10120208511E0002069
:1051E00020850EE0208D012808DAE0690178228D03
:1051F000501C208504F12E00815402E0002084F828
:10520000F100606A401E6062E069401CE06127E1D5
:10521000208DB0B9E069007820280BD0E0690078D3
:10522000092807D0E06900780A2803D0E0690078EF
:105230000D2806D1606A401E6062E069401CE06192
:105240000EE1E0690078218D5D4A1268515C884268
:1052500042D1606A401E6062E069401CE061208DBE
:10526000022835D12046FFF7A1F90020208504202F
:1052700084F8F100E06920626168206A884234D9CC
:105280006168206A401ABDF80010884204DA208C58
:10529000A188401A80B2009094F82C0010B101202F
:1052A00001E023E0002003466A462846616800F0DA
:1052B00067FA0746CFB94FF00109BDF800106068E2
:1052C00008446060BDF800106069401A60610CE03D
:1052D000208D401C208508E0606A401E6062E06905
:1052E000401CE061002084F8F100B9E06168206AA8
:1052F000884273D96168206A401ABDF8001088425C
:1053000004DA208CA188401A80B20090BDF8000019
:1053100020B194F82C0010B1012061E068E05EE05B
:105320004C5749505C6C7769705F6170705C776551
:10533000625F7365727665725F64656D6F5C6874D9
:105340007470642E6300000068732D3E6C65667493
:1053500020646964206E6F742066697420696E74BD
:105360006F207531365F7421000000004173736552
:105370007274696F6E2022257322206661696C65E4
:1053800064206174206C696E6520256420696E203C
:1053900025730D0A00000000446174612073697A6E
:1053A0006520646F6573206E6F7420666974206970
:1053B0006E746F207531365F74210000CC310208A5
:1053C000D031020868732D3E7461675F696E646551
:1053D00078203C3D203078666600000017E0002011
:1053E00003466A462846616800F0CAF9074600E0AD
:1053F00000277FBB4FF00109BDF80010606808442A
:105400006060BDF800106069401A606128E0208D7E
:10541000618D88421FDA608D218D401ABDF8001021
:10542000884204DA608D218D401A80B20090228D6E
:1054300004F13000111801236A46284600F0A0F953
:10544000074667B94FF00109208DBDF800100844E8
:10545000208504E004E00020208584F8F10000BFEE
:1054600000BF606A10B1002F3FF420AE94F8F10045
:10547000042859D06168E069884255D96168E069BB
:10548000401AB5F86610884203DDB5F86600009052
:1054900018E000BF6168E069401AB0F5803F0BDB9F
:1054A00000BFAFF2841340F2D742AFF21411AFF253
:1054B0004410FDF78DFD00BF00BFA08BA188401AEE
:1054C00080B20090A87F00F0080010B1E88E0C3880
:1054D00000E0E88E4000BDF8001088420ADAA87F9C
:1054E00000F0080010B1E88E0C3800E0E88E4004AF
:1054F000000C009094F82C0008B1012000E000207E
:1055000003466A462846616800F03AF907465FB9E3
:105510004FF00109BDF80010606808446060BDF8F4
:1055200000106069401A6061606950B92068FEF738
:10553000B3FF002805DC21462846FFF765F9002067
:10554000C5E44846C3E42DE9F04104460E4617463B
:10555000254615B90020BDE8F081002028762946AF
:105560003046FFF7A3FC0020F5E7000070B50546C4
:105570000C4600BF45B900BF0DA340F6670216A157
:1055800019A0FDF725FD00BF00BF00BF002C08DCFF
:1055900000BF07A340F668021EA113A0FDF718FD87
:1055A00000BF00BF224805602248046070BD0000B3
:1055B0004C5749505C6C7769705F6170705C7765BF
:1055C000625F7365727665725F64656D6F5C687447
:1055D0007470642E630000006E6F2063676973202F
:1055E000676976656E000000417373657274696F58
:1055F0006E2022257322206661696C6564206174C7
:10560000206C696E6520256420696E2025730D0A63
:1056100000000000696E76616C6964206E756D62D1
:105620006572206F662068616E646C65727300003D
:10563000B0000020B400002070B506460C461546A8
:1056400000BF46B900BF14A340F653021CA122A01C
:10565000FDF7BEFC00BF00BF00BF44B900BF0EA3F2
:1056600040F6540227A11CA0FDF7B2FC00BF00BF0A
:1056700000BF002D08DC00BF07A340F6550225A19E
:1056800015A0FDF7A5FC00BF00BF2848066028480C
:1056900004602848056070BD4C5749505C6C7769C0
:1056A000705F6170705C7765625F7365727665725A
:1056B0005F64656D6F5C68747470642E63000000D5
:1056C0006E6F207373695F68616E646C65722067CA
:1056D0006976656E00000000417373657274696FCE
:1056E0006E2022257322206661696C6564206174D6
:1056F000206C696E6520256420696E2025730D0A73
:10570000000000006E6F2074616773206769766522
:105710006E000000696E76616C6964206E756D6262
:105720006572206F6620746167730000A40000201A
:10573000AC000020A800002010B54FF4BA7002F0B1
:105740004DF9044624B14FF4BA712046FAF751FDE1
:10575000204610BD10B5044684B1206820B12068F1
:10576000FEF79FFE00202060E06820B1E06802F0B4
:1057700067F80020E060204602F062F810BD0000EB
:105780002DE9F047074688461546994600BF45B9BA
:1057900000BF15A34FF4E4721DA121A0FDF718FC72
:1057A00000BF00BF2C8800BF4B462246414638460A
:1057B00008F0B8FD0646701C68B9B7F8660018B165
:1057C000B7F86800082801DB012404E0204604EB58
:1057D000D071C1F34F04701C08B9012CE4DC2C809B
:1057E0003046BDE8F08700004C5749505C6C776943
:1057F000705F6170705C7765625F73657276657209
:105800005F64656D6F5C68747470642E6300000083
:105810006C656E67746820213D204E554C4C00002D
:10582000417373657274696F6E202225732220663E
:1058300061696C6564206174206C696E6520256403
:1058400020696E2025730D0A0000000010B5044881
:10585000044A06CA06C001210838FFF787FE10BDBA
:10586000C8000020D431020810B500F0A5F8FFF7F9
:10587000EDFF024800F004F810BD0000E831020816
:1058800070B5064605F0F4FE044600BF002C08D1B2
:1058900000BF1DA340F6260225A12CA0FDF798FB12
:1058A00000BF00BF0121204608F072F950223146A6
:1058B000204604F0A1F8054600BF002D08D000BF27
:1058C00011A340F62A022CA120A0FDF781FB00BF06
:1058D00000BFFF21204605F01DFE044600BF002C3E
:1058E00008D100BF08A340F62C022AA117A0FDF79B
:1058F0006FFB00BF00BF2146204604F07BF82D4916
:10590000204604F012F870BD4C5749505C6C776922
:10591000705F6170705C7765625F736572766572E7
:105920005F64656D6F5C68747470642E6300000062
:1059300068747470645F696E69743A207463705F30
:105940006E6577206661696C6564000041737365FC
:105950007274696F6E2022257322206661696C65FE
:1059600064206174206C696E6520256420696E2056
:1059700025730D0A0000000068747470645F696E1E
:1059800069743A207463705F62696E64206661694D
:105990006C65640068747470645F696E69743A2041
:1059A0007463705F6C697374656E206661696C65A1
:1059B000640000000547000810B501220248016894
:1059C0000248FFF739FE10BDC40000202104000882
:1059D00070B505460C4622460321284600F088F99A
:1059E00070BD00002DE9FE4F044689466668307898
:1059F0000007870E7942204603F0BEFA10B92089CD
:105A0000042800D2C6E0606890F800A0BAF1000F48
:105A100003D0BAF1080F6BD100E0B6E0012562486F
:105A2000007800F0F000E02800D100255E49086809
:105A3000494600F01FFA00B1002525B9204603F0C1
:105A4000CBF9BDE8FE8F2089082800D2A2E02046CD
:105A500000F0E5F918B1204603F0BEF9F1E7222184
:105A6000204603F089FA00284FD03946204603F03B
:105A700083FA50B100BF00BF4CA3982255A162A089
:105A8000FDF7A6FA00BF00BF88E0218900220220AE
:105A900002F0AEFC054605B980E000BF698907F158
:105AA0000800814207D200BF40A3A12261A156A0F5
:105AB000FDF78EFA00BF00BF2146284602F0D2FF54
:105AC00050B100BF00BF39A3A52268A14EA0FDF7C9
:105AD0007FFA00BF00BF61E06E68784201B22846DD
